:0400000080313428EF
:100008007E1480310B1F13282E00191A0F1E132877
:10001800210066088A0065080A00803132280B1F13
:1000280020282E00991A8F1E2028210064088A0093
:1000380063080A00803132280B1F2A282E009A19DB
:10004800901D2A288031F220803132280B1F322857
:100058002E009A18901C32288031FE207E1009004C
:10006800883126284E08031D3B2801303C280030E3
:100078003E200800F0007008CE00691C4928700C6A
:100088002000031C1612031816162100E91C52281A
:10009800700C2000031C9612031896162100691D87
:1000A8005B28700C2000031C161303181617210078
:1000B800E91D0800700C60282000031C9613031823
:1000C800961708006B346E346F3463346B34203405
:1000D8003134323433340034703461346934723436
:1000E80020343134323433340034463441344934E2
:1000F8004C3445344434003445345234523400349A
:1001080021006B08031984282E00191A8F287108FA
:1001180022009A009D2819127C08C63E8600870195
:1001280071088100FC0A08307C020318FC012100D8
:10013800EB032E001916080008306B020318B528C7
:1001480020006F08C63E86008701010822009A0039
:100158002000EF0A08306F020318EF012100EB0AB4
:1001680008002E0019120800210051080319B828A8
:100178005208BE3E860087010108F100D20A083005
:1001880052020318D2012E0099122100D1032E0029
:1001980099167108080022009D1CD4281D121D16EE
:1001A80020006E08BE3E86008701220019088100E3
:1001B8002000EE0A08306E020318EE012100D10A71
:1001C8000800763461346C346934643461347434CE
:1001D8006534203431343234333400349011210002
:1001E800670868040319080068088A0067080A0095
:1001F800803108009010210061086204031908008A
:1002080062088A0061080A00813108000F21210074
:10021800CF01CF0A08001121080025009413080017
:10022800FE0012001E00FE0B152900346400800138
:0C0238000131890B1B290034080008006C
:10104C006630840080308500A03086000030870038
:10105C001E30813114218831E530840080308500C8
:10106C0020308600013087000D3081311421883109
:10107C00BE30FC01EE01EF0184000030850015301C
:10108C0081311A2188317E1020007329E4228831A5
:10109C000C30FA002A30F9001A30890B5328F90B5E
:1010AC005328FA0B532800321030F2009330F3001F
:1010BC00982688310C30F6009330F700E120883107
:1010CC000C30FA002A30F9001A30890B6B28F90B16
:1010DC006B28FA0B6B2800322100EA01EA0A08009F
:1010EC002000191121000330EA012000A70008306C
:1010FC00A6007730890B8028A60B8028A70B8028A8
:10110C0020001915D8278831E12088312030F500CE
:10111C009230F600852688319C208831B130200031
:10112C00A4009130A5008C268831B22EB4238831CE
:10113C00A530F5009230F60085268831BE30F600D9
:10114C009230F700E1208831D8278831E120210046
:10115C00EA01080099157620883110302000A4008F
:10116C009230A5008C2688318330BA009130BB00B8
:10117C006908BD006808BC0017218831DA30BA0054
:10118C009130BB006708BD006608BC001721883190
:10119C00ED30A4009130A5008C2688319C30F500F0
:1011AC009130F60085268831B2268831EE30F60073
:1011BC009230F700E1287708F2007608F1006723F7
:1011CC00883172082000A1007108A000A201A301BF
:1011DC000D2976082000220784007708233D85001E
:1011EC000008F800C6278A00003F0A0088317806FC
:1011FC00031D05292000A20A0319A30A08292000AF
:10120C00A201A301BC228831003A031DEF28200063
:10121C0021082302031D14292008220203180800A8
:10122C000829B4238831E422883120003B08A2002D
:10123C003A08A1003D08A4003C08A3003E30342429
:10124C0088313E30F2000030F30098268831DD27DB
:10125C008831E128BA22883190228831A03086006A
:10126C0000308700D5308400003085000A30210022
:10127C00D30016001A00D30B3F2973302000A100B5
:10128C009230C0278831D530A40134248831D53030
:10129C00712288314C2288312100DF005F08031D48
:1012AC00592901305A290230F921883102302100A4
:1012BC005F0603194D2930000C1029302100D40091
:1012CC009630D3007F30890B6929D30B6929D40B55
:1012DC006929262730000C14080030000C10E1237B
:1012EC0088313630F1000030F200D52388310A30D5
:1012FC00F1000130F200DB2388318B170B170A3019
:10130C0025008D00B92288319022883101301727B1
:10131C0088312100E9007620883130302000E60049
:10132C009230E7008830E8009230E900B020883134
:10133C002100690FA6290230D000C7218831A829C5
:10134C001C22883130000C14BB2920008E1ABB29BA
:10135C00C7218831BB294F080319B6291C228831B3
:10136C0020000D1ABB29302188316400210050085F
:10137C00013A0319B129033A0319AB29BB2980316E
:10138C003428AA30860000308700D3308400003027
:10139C00850009302000ED0016001A00ED0BD22953
:1013AC009230A1009230C0278831D330A40134246C
:1013BC008831D330712288310330F92188314C22A5
:1013CC0088312100DC005C08031DF7296422883178
:1013DC002100E9006908F1000130B923883101309E
:1013EC00F9290230F929F2002100D000013A031941
:1013FC00092A033A0319152A013A0319132A073A41
:10140C0003190F2A1A2A1B2288310130BF22883176
:10141C000E2F283025008D00312F0A30102A1B2268
:10142C00883190228831292F0800342F2030CF01A9
:10143C00860001308700D3308400003085000D30E9
:10144C002000ED0016001A00ED0B282A3E30A100FA
:10145C009230C0278831D330A40134248831D33062
:10146C00712288314C2288312100E0006008031D74
:10147C00412A0130442A600B462A0230F921883176
:10148C000230210060060319352A0E2FCC30F600ED
:10149C009230F7009122883164228831F900593A50
:1014AC00031D5B2A0130F92100344E3079060319F3
:1014BC00013445307906031902344C2ABC22883198
:1014CC00003A031D6B2A0000642AC6278A00003FDD
:1014DC000A008A3108002000EC000430F921883120
:1014EC0067302000E8009230E900FE30EA009230CC
:1014FC00EB007D238831E4228831B630F60092303F
:10150C00F70091228831640020006C08F50000304F
:10151C00F601852E372F7708F2007608F100672345
:10152C00883172082000A1007108A0002000A201DF
:10153C00A30121082302031DA52A20082202031857
:10154C0008007608220784007708233D85000008F0
:10155C00F800642288317806031D9C2A2000A20A18
:10156C000319A30A9F2A312F1815080021005108CE
:10157C000800F10071082100CE00691CCB2A710C07
:10158C002000031C1612031816162100E91CD42A7D
:10159C00710C2000031C9612031896162100691D6D
:1015AC00DD2A710C2000031C1613031816172100DA
:1015BC00E91D0800710C803160280E2FBC22883187
:1015CC00003A03190800C6278A00003F0A008A3136
:1015DC00E42A7708F2007608F10067238831720854
:1015EC002000A3007108A200A901AA017808F1004B
:1015FC00F2016723883172082000A5007108A4004D
:10160C00AB01AC017908F100F20167238831720853
:10161C002000A1007108A000A601A7013E2B6422A6
:10162C0088312000A80076082907840077082A3D15
:10163C00850000082806031D272BA90A0319AA0AEE
:10164C00292BA901AA012B087807CC278831031D67
:10165C00332BAB0A0319AC0A352BAB01AC012608B2
:10166C007907CC278831031D122BA60A0319A70A68
:10167C0023082A02031D442B220829020318562B87
:10168C0025082C02031D4C2B24082B020318562B67
:10169C0021082702031D542B20082602031C152B9E
:1016AC0023082A06031D5C2B220829060319013482
:1016BC0025082C06031D642B24082B060319023461
:1016CC0003347208F5007108F4007408840075087E
:1016DC00850012000319762BF40A0319F50A6B2BFB
:1016EC0071087402F1007208753BF20008005A3060
:1016FC00BA009230BB006908BD006808BC006B08DA
:10170C00BF006A08BE009B238831F430F60092308B
:10171C00F700B330F800BA30F900EF228831013A03
:10172C00031D7D2B2100EA010800B4238831E4223B
:10173C00883120003B08A2003A08A1003D08A40013
:10174C003C08A3003F08A6003E08A5004030342406
:10175C0088314030F2000030F300982E21006A08E6
:10176C00031D08004C28F20030009E18BA2B1E17DF
:10177C0072089A0070309B009D0171089C00031048
:10178C008B1B03148B131E1555309F00AA309F0022
:10179C009E149E18CF2B1E1103188B17080072086D
:1017AC002100E2007108E100080072082100E80045
:1017BC007108E7000800F5238831EC2388311127E4
:1017CC008831FA268831E82788313A2F6030310089
:1017DC008D008F01910106309300920108002000CA
:1017EC009A019901960197019801073095000F30E5
:1017FC009100FF309200F9309300F3309400DA300E
:10180C003E00CE00EF30C300F330D9000730E400C7
:10181C00FF30B800DA01E5011030C400B901203006
:10182C00CF00E601BA01C501D001DB0100308B1BF2
:10183C000130F1008B13D22788310F104B08E0399F
:10184C001038CB0010303E00A100D22788310F1485
:10185C00711C322C8B1708008B130800B600233038
:10186C00AE00200070278831390803194D2E253021
:10187C0039060319482C360886008701390881007F
:10188C00B60A372CB701B801B401B501532CB41505
:10189C00502C3415A10A0319A20A892788312D3A34
:1018AC0003194D2C1D3A03194F2C5C2CB41D5F2CC5
:1018BC0034118927883152268831031C892CB701B1
:1018CC00B8010A30F100F2013808F4003708F300CF
:1018DC00E52688317208B8007108B700892788316D
:1018EC00D03EA700FF3003180030A8002708B70728
:1018FC002808B83DA10A0319A20A89278831522663
:10190C0088310318672C21088400220885001200F6
:10191C002E3A031DAB2C3517A10A0319A20AB301E9
:10192C008927883152268831031C2E2D892788312E
:10193C00A7000A30F1003308B92688312707D03EBA
:10194C00B300A10A0319A20A962CB3012E2DB417C9
:10195C00432D2E0886008701403FAC00413FAD006F
:10196C00AE0AAE0A2C04031DBF2CC530AC0092305D
:10197C00AD00AF01B0012C082F0784002D08303DBD
:10198C00850012000319CE2CAF0A0319B00AC12C22
:10199C0033080319E32C3308A700A801A71BA803DD
:1019AC0030082802031DDC2C2F0827020318E32C17
:1019BC003308AF00B001AF1BB00338083002031D71
:1019CC00E92C37082F020318F02C2F08B702300827
:1019DC00B83BF22CB701B801B41DF72C0E2DB12772
:1019EC008831FF30B707031CB803370FF52C380AC2
:1019FC0003190E2DF52C3608860087012C0884005F
:101A0C002D08850000088100AC0A0319AD0AB60A3E
:101A1C000130AF020030B03B2F0F012D300A031DF7
:101A2C00012DB4191C2D372CB1278831FF30B70785
:101A3C00031CB803370F1A2D380A0319372C1A2D2B
:101A4C003930AC000030AD00AF01AF0AB001CE2C84
:101A5C0070278831003A03194D2E643A0319432D2F
:101A6C000D3A0319432D193A0319AD2C033A0319F6
:101A7C00AF2C0B3A0319AD2C262DB41B512DA727D7
:101A8C008831B21F532D0330B404B109B209B10A25
:101A9C000319B20A532DA72788313308031D842D4F
:101AAC0031083204031D842DB30A842DB90105308D
:101ABC00B90A390603198C2D39089B278831A900DE
:101ACC00013FAA003202031D6D2D29083102031CAF
:101ADC008C2D5D2DB9010430B90A390603198C2DF2
:101AEC0039087D278831A900013FAA003202031D65
:101AFC00812D29083102031C8C2D712D340880395D
:101B0C0003195C2D803A0319702D8C2D3908803AFD
:101B1C00A7003308803AA70233080318972DB900A1
:101B2C00A02D803AA7003908803AA7020318A02DEF
:101B3C003908B300370838040319AC2D34080339BD
:101B4C000319AC2DFF30B707031CB803351FBB2D91
:101B5C003308612788310318B82D20003308B827C3
:101B6C008831BB2D2000B701B801390861278831B5
:101B7C000318C52D20003908B8278831C82D20003E
:101B8C00B701B801341DE32D340803390319D42DE2
:101B9C00360886002D3087018100B60A37083804D4
:101BAC000319362E36088600303087018100FF304D
:101BBC00B60AB707031CB803D42D37083804031D25
:101BCC00B419ED2D36088F278831031DE82D340804
:101BDC0003390319362E360886002D308701342E32
:101BEC000A30F800F90133089B278831F100013FD6
:101BFC00F2003208F4003108F300602688317208D4
:101C0C00FB007108FA00C52688317808303E262E74
:101C1C003208F4003108F30033087D278831F100D5
:101C2C00013FF200602688317108AB000F30AB0524
:101C3C002B08FF3E840091300318013E85000008FC
:101C4C00B900302E340880390319F62D803A031967
:101C5C000E2E302E36088600870139088100B60A10
:101C6C00B303330F282EB41D372C3808803AA70045
:101C7C0080302702031D442E01303702031C372C01
:101C8C00200036088F2788310319372C462E36084A
:101C9C008600870181010800F2003A30F1017202DE
:101CAC0003185E2E30307202031C5E2EF101F10A15
:101CBC00710C0800F501F601710872040319802EED
:101CCC00F701F70AF21B6D2EF135F20D672EF53583
:101CDC00F60D72087402031D752E71087302031C35
:101CEC007C2E7108F3027208F43B7514F236F10C79
:101CFC00F70B6D2E7608F2007508F1000800E4224F
:101D0C0088317608F3007508F200982EB4238831D8
:101D1C0020002508F6002408F50085268831DD27EB
:101D2C008831E128720884007308850012000319B9
:101D3C00080072088400730885000008F100D83090
:101D4C00840091308500013F8A00003F0A008E31EB
:101D5C00F20A0319F30A982EDA30F5009230F600E5
:101D6C00852688319C28F300F20171087318F2075C
:101D7C00F135F3367308031DBB2E72080800780882
:101D8C0079040319E02EA001A00AF91BD02EF83516
:101D9C00F90DCA2E79087B02031DD62E78087A021B
:101DAC00031CDC2E7808FA027908FB3BF936F80C98
:101DBC00A00BD02E7B08F9007A08F8000800F5017A
:101DCC00F601711CED2E7308F5077408F63DF3351A
:101DDC00F40DF236F10C71087204031DE72E76082F
:101DEC00F2007508F10008007F30250094000430E3
:101DFC00960095019701E230930092012E0090110C
:101E0C009A152030F1000130F200DB2388310E2FBF
:101E1C00250094170800243030008C0007308D000A
:101E2C000800F1001A2F2500640030009E18192FAD
:101E3C001E1771089A0070309B001E141C080800B5
:101E4C002000181108002100CE0120001612961255
:101E5C0016139613080025008E17080025008E1304
:101E6C0008002500941308002E0099121912A030B6
:101E7C00F1000030F200E2278831CF30F100003061
:101E8C00F200FB27083022009F0090309D00243088
:101E9C009E0040309B0003309C00FC012000EF01B1
:101EAC0008302100EB002000EE012100D201D1010D
:101EBC002E0099160800A700A801A71BA803280844
:101ECC00803AA9003808803A2902031D0800370817
:101EDC00270208002208A8002108A700A10A03195C
:101EEC00A20A8400280885000008B9000800A70091
:101EFC00AE30A801A735A80D270784009230283DE5
:101F0C008500003F08002108840022088500000895
:101F1C0008008600203087018100FF30B60AB70721
:101F2C00031CB803370838040800A7007E30A8014A
:101F3C00A735A80D270784009230283D8500003F67
:101F4C0008002E0886008701403FB100413FB200D7
:101F5C00AE0AAE0A080036088600203087018100E0
:101F6C00B60A0800A700A801A71BA803B7022808F7
:101F7C00B83B0800A200210069082000A30008005B
:101F8C00CA30840091308500013F0800FA008600B9
:101F9C00870101082806080055303D008F00AA3043
:101FAC008F000800E830F6009230F7000800083087
:101FBC00F6009330F700080072082100E600710863
:101FCC00E50008003F308E00043090008F01910135
:101FDC0001308D008C012E0090109A142130F100EC
:101FEC000130F200D5238831312F7208E4007108DA
:101FFC00E30008000A342034203420342034203408
:10200C002034203420342034203420347C342034C8
:10201C007C340A34203420342034203420342034CE
:10202C00203420342034203420347C3420347C344C
:10203C000A342034203420342D342D342D342D34D6
:10204C002D342D342D342D342D342D342D342D347C
:10205C002D342D342D342D342D342D342D340A348F
:10206C002034203420342D342D342D342D342D3483
:10207C002D342D342D342D342D342D342D342D344C
:10208C002D342D342D342D342D342D340A3420346C
:10209C002034203420347C34203420345F345F34BA
:1020AC005F34203420347C34203420345F345F346B
:1020BC005F34203420347C340A34203420342034EF
:1020CC0020347C3420347C3420347C3420347C34F4
:1020DC0020347C3420347C3420347C3420347C34E4
:1020EC0020347C340A3420342034203420347C34A2
:1020FC0020347C342D342B342D347C3420347C34FB
:10210C0020347C342D342B342D347C3420347C34EA
:10211C000A3420342034203420347C3420347C3471
:10212C005F347C345F347C3420347C3420347C3415
:10213C005F347C345F347C3420347C340A34203477
:10214C002034203420347C34203420345F345F3409
:10215C005F34203420347C34203420345F345F34BA
:10216C005F34203420347C340A342034203420343E
:10217C0020347C3420347C342034203420347C349F
:10218C0020347C3420347C342034203420347C348F
:10219C0020347C340A3420342034203420347C34F1
:1021AC0020347C342034203420347C3420347C346F
:1021BC0020347C342034203420347C3420347C345F
:1021CC000A3420342034203420347C3420347C34C1
:1021DC005F345F345F347C3420347C3420347C3482
:1021EC005F345F345F347C3420347C340A342034E4
:1021FC002034203420347C34203420345F345F3459
:10220C005F34203420347C34203420345F345F3409
:10221C005F34203420347C340A342034203420348D
:10222C0020347C3420347C342034203420347C34EE
:10223C0020347C3420347C342034203420347C34DE
:10224C0020347C340A3420342034203420347C3440
:10225C0020347C342034203420347C3420347C34BE
:10226C0020347C342034203420347C3420347C34AE
:10227C000A3420342034203420347C3420347C3410
:10228C005F345F345F347C3420347C3420347C34D1
:10229C005F345F345F347C3420347C340A34203433
:1022AC002034203420347C34203420342034203426
:1022BC002034203420347C34203420342034203416
:1022CC002034203420347C340A342034203420341C
:1022DC003D343D343D343D343D343D343D343D346A
:1022EC003D343D343D343D343D343D343D343D345A
:1022FC003D343D343D340A34003473346534743425
:10230C00203477346C3461346E342034703461345E
:10231C0073347334703468347234613473346534A8
:10232C002034253473340D340A340034733465345A
:10233C0074342034693470342034703472346F3413
:10234C0074346F3463346F346C3420343034383438
:10235C000D340A34003473346534743420347534D9
:10236C0061347234743420346D346F3464346534B5
:10237C00203430347834313431340D340A34003470
:10238C00BC340A343A340F34B8340034CF3400340B
:10239C00FB340F34E2340F34003400340034003496
:1023AC00A0340034843400347334653474342034F1
:1023BC0077346C3461346E34203473347334693450
:1023CC0064342034253473340D340A3400347334BB
:1023DC0065347434203477346C3461346E34203486
:1023EC006A346F3469346E34203431340D340A3429
:1023FC0000343034313432343334343435343634CC
:10240C003734383439346134623463346434653489
:10241C006634003473346534743420346934703465
:10242C0020346434683463347034203431340D34E3
:10243C000A34003466346134633474346F34723467
:10244C0079342034523445345334453454340D34B7
:10245C000A340034433434342D3432342D3435348E
:10246C00343433345F3457344C3441344E340034C8
:10247C00763461346C346934643461347434653466
:10248C002034253430343334643400344B346E34DB
:10249C006F3463346B3420344B346E346F346334A8
:1024AC006B340D340A3400346F34703465346E344C
:1024BC002034253473342034253473340D340A34E9
:1024CC0000343134393432342E34313436343834F7
:1024DC002E3431342E34373400346B346E346F3444
:1024EC0063346B3420342534303433346434003466
:1024FC00013400340A34003464340034E8340334D6
:10250C00103427344834403463346B3465347234BB
:10251C0031343034313400347034613469347234D1
:10252C0020342534303433346434003444346F3440
:10253C00633474346F3472340D340A3400347234AE
:10254C00653462346F346F3474340D340A340034AF
:10255C0001340034103400340034013400341034AD
:10256C00503472346F3463346534653464340034FD
:10257C005234653462346F346F347434003428341C
:10258C006E3475346C346C342934003453347434F4
:10259C00613474343A34203400347434683465341F
:1025AC00723465343F3400347334613476346534BA
:1025BC000D340A34003465347834693474340D3491
:1025CC000A340034523445344134443459340034E0
:1025DC00493446343D345534503400344F3450343F
:1025EC0045344E3400344534583449345434003472
:1025FC0031343334333435340034773468346F3415
:10260C003F34003441344F344B34003443344D3474
:0C261C00443400342434243424340034CA
:020000040001F9
:0A000E00EC3FFF3FB207FF3FFF3F4A
:00000001FF
