:1000000080313428080008007E1480310B1F13282B
:100010002E00191A0F1E1328210068088A0067088D
:100020000A00803132280B1F20282E00991A8F1EBB
:100030002028210066088A0065080A0080313228DD
:100040000B1F2A282E009A19901D2A288F31672706
:10005000803132280B1F32282E009A18901C32282B
:100060008F315B277E10090080313628E230840012
:100070008F308500A0308600003087001E308F3121
:1000800040278031733084008F3085002030860017
:10009000013087000D308F3140278031BE30FC01A8
:1000A000ED01EE01EF0184000030850014308F3146
:1000B0003A2780317E102000FC2850228031833086
:1000C000F2009130F300772680317B30F6009130DA
:1000D000F70041262100EB01EB0A080020238031C4
:1000E0001430F5009130F600382680312D30F600BE
:1000F0009130F70041268031BF2780314126210011
:10010000EB0108001715B52380318D302000A400C5
:100110009030A5002C2680310030BA009030BB0012
:100120006908BD006808BC00B32080315730BA00B0
:100130009030BB006708BD006608BC00B32080316A
:100140006A30A4009030A5002C2680311930F500CB
:100150009030F60038268031912680315D30F600EF
:100160009130F700412E2023803150228031200031
:100170003B08A2003A08A1003D08A4003C08A300E7
:100180003E30DB2380313E30F2000030F300772632
:100190008031BA278031412E1E228031A030860066
:1001A00000308700D3308400003085000A30210001
:1001B000D20016001A00D20BD928E2302000A1008C
:1001C0009030A8278031D330A401DB238031D33095
:1001D000FC218031D42180312100DD005D08031D28
:1001E000F3280130F42802307F21803102302100D1
:1001F0005D06031D0800E72830000C104D238031F8
:100200005030F1000F30F200412380314630F100D0
:100210000F30F200472380318B170B1747228031B4
:100220001E2280310130E92680312100E900B5230A
:1002300080317F30D2009130D300F730D40090303D
:10024000D500D92680312100690F2B290230D0003A
:100250004C2180312D29A221803130000C144029FD
:1002600020008C1A40294C21803140294F08031965
:100270003B29A221803120000E194029CC20803159
:10028000640021005008013A03193629033A031982
:100290003029402980313428AA3086000030870078
:1002A000D33084000030850009302100D2001600D0
:1002B0001A00D20B572901302000A1009130A82745
:1002C0008031D330A401DB238031D330FC21803155
:1002D00003307F218031D42180312100DC005C0893
:1002E000031D7D29EF2180312100E9006908F1001B
:1002F00001302523803101307F2902307F29F2002F
:100300002100D000013A03198F29033A03199B29D0
:10031000013A03199929073A03199529A029A1211E
:10032000803101304B228031AC2B0A3025008D000A
:10033000FB2E02309629A12180311E228031F82E19
:100340000800FE2E2030860001308700D330840064
:10035000003085000D30D20016001A00D20BAC29F7
:10036000AD302000A1009030A8278031D330A40107
:10037000DB238031D330FC218031D4218031210036
:10038000E0006008031DC6290130C929600BCB2994
:1003900002307F2180310230210060060319BA2922
:1003A000200016119615AC2B2000961016153B3028
:1003B000F6009130F7001F228031EF218031F900E3
:1003C000593A031DE62901307F2100344E30790669
:1003D000031901344530790603190234D72948221C
:1003E0008031003A031DF6290000EF29AE278A006C
:1003F000003F0A00813108002000EC0004307F211A
:100400008031200096111614D630E8009030E900B3
:100410006D30EA009130EB00E922803120001610A7
:100420009614502280312530F6009130F7001F22BB
:1004300080316C08F5000030F601382E012F770866
:10044000F2007608F100D322803172082000A1006A
:100450007108A0002000A201A30121082302031DAE
:10046000332A200822020318080076082207840095
:100470007708233D85000008F800EF2180317806D9
:10048000031D2A2A2000A20A0319A30A2D2AFB2EE3
:10049000210051080800F1002100CE000800AC2B1B
:1004A00048228031003A03190800AE278A00003F35
:1004B0000A008231502A7708F2007608F100D32230
:1004C000803172082000A3007108A200A901AA01CE
:1004D0007808F100F201D322803172082000A500D3
:1004E0007108A400AB01AC017908F100F201D3223C
:1004F000803172082000A1007108A000A601A701A8
:10050000AA2AEF2180312000A8007608290784005C
:1005100077082A3D850000082806031D932AA90AAA
:100520000319AA0A952AA901AA012B087807B4275A
:100530008031031D9F2AAB0A0319AC0AA12AAB0123
:10054000AC0126087907B4278031031D7E2AA60A4C
:100550000319A70A23082A02031DB02A2208290228
:100560000318C22A25082C02031DB82A24082B02CE
:100570000318C22A21082702031DC02A20082602C8
:10058000031C812A23082A06031DC82A22082906DB
:100590000319013425082C06031DD02A24082B0634
:1005A0000319023403347208F5007108F40074086A
:1005B00084007508850012000319E22AF40A031961
:1005C000F50AD72A71087402F1007208753BF2002F
:1005D0000800C930BA009030BB006908BD00680847
:1005E000BC006B08BF006A08BE000723803163307F
:1005F000F6009130F700B330F800BA30F9005B2212
:100600008031013A031DE92A2100EB010800202373
:1006100080315022803120003B08A2003A08A1001E
:100620003D08A4003C08A3003F08A6003E08A50022
:100630004030DB2380314030F2000030F300772E71
:1006400021006B08031D08005D28F20030009E1891
:10065000262B1E1772089A0070309B009D017108AE
:100660009C0003108B1B03148B131E1555309F0029
:10067000AA309F009E149E183B2B1E1103188B1747
:10068000080072082100E4007108E3000800720805
:100690002100E2007108E100080061238031582345
:1006A0008031AF2380319823803131278031042F6E
:1006B000603031008D008F0191010530930092016F
:1006C00008002000960197019801F0309100F93060
:1006D0009200DF309300BB303E00CE00F930C30003
:1006E000DF30B800E501C401B9010430CF00BA0120
:1006F000C501D00100308B1B0130F1008B13553048
:100700003D008F00AA308F000F1010303E00A50072
:100710003D004B08E0391638CB0055308F00AA3029
:100720008F000F14711C962B8B1708008B13080079
:100730007F302500940004309600950197014B30DE
:10074000930092012E0090119A150330F1000030B1
:10075000F20047238031AC2B250094170800243089
:1007600030008C0007308D00080020009710210019
:100770000230EB01FA000430F900BA30890BBE2BCD
:10078000F90BBE2BFA0BBE2B003220009714BF27AB
:100790008031412680319D30F5009030F6003826BA
:1007A00080316E2080312E302000A4009030A500D2
:1007B0002C268031912EB6002330AE002000582721
:1007C000803139080319F42D253039060319EF2B30
:1007D00036088600870139088100B60ADE2BB7018A
:1007E000B801B401B501FA2BB415F72B3415A10AE1
:1007F0000319A20A712780312D3A0319F42B1D3AEF
:100800000319F62B032CB41D062C341171278031EB
:10081000F9258031031C302CB701B8010A30F100F2
:10082000F2013808F4003708F300C426803172085A
:10083000B8007108B70071278031D03EA700FF30A3
:1008400003180030A8002708B7072808B83DA10AF8
:100850000319A20A71278031F925803103180E2C63
:10086000210884002208850012002E3A031D522C14
:100870003517A10A0319A20AB30171278031F9259E
:100880008031031CD52C71278031A7000A30F1007C
:100890003308982680312707D03EB300A10A0319F8
:1008A000A20A3D2CB301D52CB417EA2C2E088600E1
:1008B0008701403FAC00413FAD00AE0AAE0A2C04B8
:1008C000031D662C3430AC009130AD00AF01B00197
:1008D0002C082F0784002D08303D850012000319D5
:1008E000752CAF0A0319B00A682C330803198A2C37
:1008F0003308A700A801A71BA80330082802031D7E
:10090000832C2F08270203188A2C3308AF00B0016C
:10091000AF1BB00338083002031D902C37082F029C
:100920000318972C2F08B7023008B83B992CB70151
:10093000B801B41D9E2CB52C99278031FF30B70724
:10094000031CB803370F9C2C380A0319B52C9C2CB8
:100950003608860087012C0884002D0885000008D1
:100960008100AC0A0319AD0AB60A0130AF020030AB
:10097000B03B2F0FA82C300A031DA82CB419C32C90
:10098000DE2B99278031FF30B707031CB803370FE0
:10099000C12C380A0319DE2BC12C3930AC000030D1
:1009A000AD00AF01AF0AB001752C58278031003A75
:1009B0000319F42D643A0319EA2C0D3A0319EA2CB1
:1009C000193A0319542C033A0319562C0B3A0319FC
:1009D000542CCD2CB41BF82C8F278031B21FFA2C4D
:1009E0000330B404B109B209B10A0319B20AFA2CEE
:1009F0008F2780313308031D2B2D31083204031D4E
:100A00002B2DB30A2B2DB9010530B90A390603196C
:100A1000332D390883278031A900013FAA00320213
:100A2000031D142D29083102031C332D042DB90197
:100A30000430B90A39060319332D39086527803186
:100A4000A900013FAA003202031D282D2908310206
:100A5000031C332D182D340880390319032D803AD7
:100A60000319172D332D3908803AA7003308803A2F
:100A7000A702330803183E2DB900472D803AA7007E
:100A80003908803AA7020318472D3908B300370800
:100A900038040319532D340803390319532DFF303B
:100AA000B707031CB803351F622D3308492780316F
:100AB00003185F2D20003308A0278031622D20000D
:100AC000B701B80139084927803103186C2D20007F
:100AD0003908A02780316F2D2000B701B801341DDF
:100AE0008A2D3408033903197B2D360886002D30F2
:100AF00087018100B60A370838040319DD2D36084E
:100B00008600303087018100FF30B60AB707031C2A
:100B1000B8037B2D37083804031DB419942D36080B
:100B200077278031031D8F2D340803390319DD2DFC
:100B3000360886002D308701DB2D0A30F800F901D8
:100B4000330883278031F100013FF2003208F400BE
:100B50003108F300072680317208FB007108FA00A3
:100B6000A42680317808303ECD2D3208F4003108BB
:100B7000F300330865278031F100013FF2000726BA
:100B800080317108AB000F30AB052B087C3E840030
:100B900090300318013E85000008B900D72D3408B5
:100BA000803903199D2D803A0319B52DD72D3608AC
:100BB0008600870139088100B60AB303330FCF2DB1
:100BC000B41DDE2B3808803AA70080302702031DB1
:100BD000EB2D01303702031CDE2B2000360877276F
:100BE00080310319DE2BED2D360886008701810147
:100BF0000800F2003A30F10172020318052E30307D
:100C00007202031C052EF101F10A710C0800F501B6
:100C1000F601710872040319272EF701F70AF21B77
:100C2000142EF135F20D0E2EF535F60D7208740204
:100C3000031D1C2E71087302031C232E7108F3027E
:100C40007208F43B7514F236F10CF70B142E76088B
:100C5000F2007508F10008002023803120002508EB
:100C6000F6002408F50038268031BA278031412E5D
:100C700050228031502280317608F3007508F2004E
:100C8000772E7708F2007608F100D32280317208BF
:100C90002000A1007108A000A201A3016D2E76081A
:100CA0002000220784007708233D85000008F80013
:100CB000AE278A00003F0A0086317806031D652EA4
:100CC0002000A20A0319A30A682E2000A201A30192
:100CD00048228031003A031D4F2E200021082302B4
:100CE000031D742E2008220203180800682E7208C3
:100CF000840073088500120003190800720884003C
:100D0000730885000008F10055308400903085009C
:100D1000013F8A00003F0A008631F20A0319F30AF4
:100D2000772E4930F5009130F600382680316E2854
:100D3000F300F20171087318F207F135F336730806
:100D4000031D9A2E72080800780879040319BF2E33
:100D5000A001A00AF91BAF2EF835F90DA92E7908CC
:100D60007B02031DB52E78087A02031CBB2E78087F
:100D7000FA027908FB3BF936F80CA00BAF2E7B0882
:100D8000F9007A08F8000800F501F601711CCC2E74
:100D90007308F5077408F63DF335F40DF236F10CDF
:100DA00071087204031DC62E7608F2007508F10062
:100DB000080053082000E700210052082000E60048
:100DC000210055082000E900210054082000E80017
:100DD0008228F100EC2E2500640030009E18EB2ED6
:100DE0001E1771089A0070309B001E141C08080022
:100DF0002100CE01080025008E17080025008E1363
:100E000008002500941308002E009912191296303C
:100E1000F1000F30F2002B2780318030F1000F30CD
:100E2000F2004427083022009F0090309D002430BB
:100E30009E00A0309B0001309C00FC012000EF01CF
:100E400008302100EA002000EE01ED012100D1016F
:100E50002E009916080072082100E8007108E700CA
:100E600008007F308E00043090008F0191010E3019
:100E70008D008C012E0090109A140230F100003089
:100E8000F20041238031FB2E7208E6007108E50074
:100E90000800A700A801A71BA8032808803AA900FA
:100EA0003808803A2902031D080037082702080085
:100EB0002208A8002108A700A10A0319A20A840099
:100EC000280885000008B9000800A7001D30A80107
:100ED000A735A80D270784009130283D8500003FE5
:100EE0000800210884002208850000080800860008
:100EF000203087018100FF30B60AB707031CB80312
:100F0000370838040800A700ED30A801A735A80D60
:100F1000270784009030283D8500003F08002E08F8
:100F200086008701403FB100413FB200AE0AAE0AE1
:100F3000080036088600203087018100B60A0800C4
:100F4000A700A801A71BA803B7022808B83B080000
:100F5000A200210069082000A30008004730840097
:100F600090308500013F0800FA00860087010108E3
:100F7000280608007730F6009130F7000800573057
:100F8000F6009130F70008000A3420342034203471
:100F900020342034203420342034203420342034B1
:100FA0007C3420347C340A342034203420342034FF
:100FB00020342034203420342034203420347C3435
:100FC00020347C340A342034203420342D342D3421
:100FD0002D342D342D342D342D342D342D342D3409
:100FE0002D342D342D342D342D342D342D342D34F9
:100FF0002D340A342034203420342D342D342D3433
:101000002D342D342D342D342D342D342D342D34D8
:101010002D342D342D342D342D342D342D342D34C8
:101020000A3420342034203420347C3420342034DA
:101030005F345F345F34203420347C3420342034F7
:101040005F345F345F34203420347C340A342034FD
:101050002034203420347C3420347C3420347C34DC
:1010600020347C3420347C3420347C3420347C3470
:1010700020347C3420347C340A342034203420342E
:1010800020347C3420347C342D342B342D347C3487
:1010900020347C3420347C342D342B342D347C3477
:1010A00020347C340A3420342034203420347C34FE
:1010B00020347C345F347C345F347C3420347C34A2
:1010C00020347C345F347C345F347C3420347C3492
:1010D0000A3420342034203420347C34203420342A
:1010E0005F345F345F34203420347C342034203447
:1010F0005F345F345F34203420347C340A3420344D
:101100002034203420347C3420347C342034203487
:1011100020347C3420347C3420347C34203420341B
:1011200020347C3420347C340A342034203420347D
:1011300020347C3420347C342034203420347C34FB
:1011400020347C3420347C342034203420347C34EB
:1011500020347C340A3420342034203420347C344D
:1011600020347C345F345F345F347C3420347C340E
:1011700020347C345F345F345F347C3420347C34FE
:101180000A3420342034203420347C342034203479
:101190005F345F345F34203420347C342034203496
:1011A0005F345F345F34203420347C340A3420349C
:1011B0002034203420347C3420347C3420342034D7
:1011C00020347C3420347C3420347C34203420346B
:1011D00020347C3420347C340A34203420342034CD
:1011E00020347C3420347C342034203420347C344B
:1011F00020347C3420347C342034203420347C343B
:1012000020347C340A3420342034203420347C349C
:1012100020347C345F345F345F347C3420347C345D
:1012200020347C345F345F345F347C3420347C344D
:101230000A3420342034203420347C3420342034C8
:10124000203420342034203420347C3420342034A2
:10125000203420342034203420347C340A342034A8
:10126000203420343D343D343D343D343D343D3430
:101270003D343D343D343D343D343D343D343D34E6
:0E1280003D343D343D343D343D340A340034B9
:101E7400640080010131890B3B2F0034FE00120005
:101E84001E00FE0B412F00344B272100CF01CF0A47
:101E940008004D2708002500941308004E08031D70
:101EA400552F0130562F003058270800F000CE007F
:101EB40008009010210063086404031908006408F2
:101EC4008A0063080A008F3108009011210061081C
:101ED40062040319080062088A0061080A008F314D
:101EE4000800763461346C34693464346134743495
:101EF40065342034313432343334003422009D1CB0
:101F0400852F1D121D1620006E08BE3E8600870117
:101F14002200190881002000EE0A08306E0203181E
:101F2400EE012100D10A080008306A020318AB2F21
:101F340020006F08C63E86008701010822009A002F
:101F44002000EF0A08306F020318EF012100EA0AAB
:101F540008002E0019120800210051080319AE2FA1
:101F640020006D08BE3E860087010108F100ED0ADD
:101F740008306D020318ED012E0099122100D103DF
:101F84002E0099167108080021006A080319C62F4B
:101F94002E00191AD12F710822009A00DF2F19126E
:101FA4007C08C63E8600870171088100FC0A08305F
:101FB4007C020318FC012100EA032E001916080014
:101FC4006B346E346F3463346B34203431343234D4
:101FD400333400347034613469347234203431342D
:101FE4003234333400344634413449344C34453487
:101FF4004434003445345234523400347334653438
:102004007434203477346C3461346E342034703456
:1020140061347334733470346834723461347334B7
:1020240065342034253473340D340A340034733465
:102034006534743420346934703420347034723428
:102044006F3474346F3463346F346C34203430340C
:1020540038340D340A340034733465347434203421
:10206400753461347234743420346D346F346434B0
:102074006534203430347834313431340D340A3416
:1020840000344834023404340734AE340F3480341A
:102094000F34443407342B34073400340034003410
:1020A400003496340F34C6340F34733465347434C6
:1020B400203477346C3461346E34203473347334A4
:1020C400693464342034253473340D340A340034D0
:1020D400733465347434203477346C3461346E343E
:1020E40020346A346F3469346E34203431340D341E
:1020F4000A34003430343134323433343434353403
:1021040036343734383439346134623463346434C3
:10211400653466340034733465347434203469347B
:10212400703420346434683463347034203431348B
:102134000D340A34003466346134633474346F34D7
:10214400723479342034523445345334453454345D
:102154000D340A340034763461346C3469346434B4
:102164006134743465342034253430343334643485
:1021740000344B346E346F3463346B3420344B345A
:102184006E346F3463346B340D340A3400346F347A
:10219400703465346E34203425347334203425345B
:1021A40073340D340A3400343134393432342E3437
:1021B4003134363438342E3431342E343734003418
:1021C4006B346E346F3463346B34203425343034E0
:1021D400333464340034013400340A340034643455
:1021E4000034E8340334103427344834403463343E
:1021F4006B346534723431343034313400347034F7
:1022040061346934723420342534303433346434E2
:10221400003444346F34633474346F3472340D34A2
:102224000A3400347234653462346F346F34743475
:102234000D340A34003401340034103400340034D2
:10224400013400341034503472346F3463346534E0
:102254006534643400345234653462346F346F341A
:102264007434003428346E3475346C346C3429344A
:10227400003453347434613474343A3420340034C4
:10228400743468346534723465343F3400347334E0
:102294006134763465340D340A340034653478346A
:1022A400693474340D340A340034523445344134BE
:1022B400443459340034493446343D34553450346C
:1022C40000344F34503445344E340034453458349B
:1022D40049345434003431343334333435340034F1
:1022E400773468346F343F34003441344F344B34E2
:1022F400003443344D3444340034413426345934A6
:0A230400003424342434243400345F
:020000040001F9
:0A000E00EC3FFF3FB207FF3FFF3F4A
:00000001FF
