:0400000080313428EF
:100008007E1480310B1F13282E00191A0F1E132877
:10001800210066088A0065080A00803132280B1F13
:1000280020282E00991A8F1E2028210064088A0093
:1000380063080A00803132280B1F2A282E009A19DB
:10004800901D2A288031F420803132280B1F322855
:100058002E009A18901C3228813100217E10090048
:10006800883120282E0099121912A230F100003090
:10007800F2005D208031D130F1000030F2006320C1
:10008800083022009F0090309D0024309E004030B0
:100098009B0003309C00FC012000EF010830210088
:1000A800EB002000EE012100D201D1012E009916AB
:1000B800080072082100E6007108E50008007208CF
:1000C800E4007108E30008006B346E346F34633465
:1000D8006B34203431343234333400347034613486
:1000E8006934723420343134323433340034463491
:1000F800413449344C344534443400344534523462
:100108005234003421006B08031986282E00191A6E
:100118009128710822009A009F2819127C08C63E6F
:100128008600870171088100FC0A08307C020318E8
:10013800FC012100EB032E001916080008306B02A1
:100148000318B72820006F08C63E860087010108FB
:1001580022009A002000EF0A08306F020318EF010E
:100168002100EB0A08002E0019120800210051088E
:100178000319BA285208BE3E860087010108F1001B
:10018800D20A083052020318D2012E009912210017
:10019800D1032E0099167108080022009D1CD6284C
:1001A8001D121D1620006E08BE3E86008701220023
:1001B800190881002000EE0A08306E020318EE01CB
:1001C8002100D10A0800763461346C34693464340F
:1001D8006134743465342034313432343334003487
:1001E80090112100670868040319080068088A004C
:1001F80067080A0080310800901021006108620435
:100208000319080062088A0061080A0081310800A1
:1002180011212100CF01CF0A080013210800250071
:1002280094130800FE0012001E00FE0B172900346C
:10023800640080010131890B1D2900340800080081
:101040006830840080308500A03086000030870042
:101050001E30813116218831E730840080308500D0
:1010600020308600013087000D3081311621883113
:10107000BE30FC01EE01EF01840000308500153028
:1010800081311C2188317E1020006D29DD228831BC
:101090000C30FA002A30F9001A30890B4D28F90B70
:1010A0004D28FA0B4D2800321030F2009330F30037
:1010B000912688310C30F6009330F700DB20883120
:1010C0000C30FA002A30F9001A30890B6528F90B28
:1010D0006528FA0B652800322100EA01EA0A0800B7
:1010E0002000191121000330EA012000A700083078
:1010F000A6007730890B7A28A60B7A28A70B7A28C6
:1011000020001915C6278831DB2088312030F500F2
:101110009230F6007E26883196208831B13020004A
:10112000A4009130A50085268831AB2EAD238831EF
:10113000A530F5009230F6007E268831BE30F600EC
:101140009230F700DB208831C6278831DB20210070
:10115000EA01080099157020883110302000A400A1
:101160009230A500852688318330BA009130BB00CB
:101170006908BD006808BC0011218831DA30BA0066
:101180009130BB006708BD006608BC0011218831A2
:10119000ED30A4009130A500852688319C30F50003
:1011A0009130F6007E268831AB268831EE30F6008D
:1011B0009230F700DB287708F2007608F100602310
:1011C000883172082000A1007108A000A201A301CB
:1011D000072976082000220784007708233D850030
:1011E0000008F800B4278A00003F0A00883178061A
:1011F000031DFF282000A20A0319A30A02292000C8
:10120000A201A301B6228831003A031DE92820007B
:1012100021082302031D0E292008220203180800BA
:101220000229AD238831DD22883120003B08A2004D
:101230003A08A1003D08A4003C08A3003E302D243C
:1012400088313E30F2000030F30091268831CB2700
:101250008831DB28B42288318A228831A030860088
:1012600000308700D5308400003085000A3021002E
:10127000D30016001A00D30B392973302000A100C7
:101280009230AE278831D530A4012D248831D53055
:101290006B228831462288312100DF005F08031D60
:1012A0005329013054290230F321883102302100C2
:1012B0005F060319472930000C1029302100D400A3
:1012C0009630D3007F30890B6329D30B6329D40B6D
:1012D0006329282730000C14080030000C10DA2392
:1012E0008831D030F1000F30F200CE2388310C303D
:1012F000F1000130F200D42388318B170B170A302C
:1013000025008D00B32288318A22883101301927C7
:1013100088312100E9007020883130302000EA0057
:101320009230EB008830EC009230ED0010278831CD
:101330002100690FA0290230D000C1218831A229E3
:101340001622883130000C14B52920008E1AB529D8
:10135000C1218831B5294F080319B02916228831D7
:1013600020000D1AB5292A21883164002100500877
:10137000013A0319AB29033A0319A529B52980318C
:101380003428AA30860000308700D3308400003033
:10139000850009302000ED0016001A00ED0BCC2965
:1013A0009230A1009230AE278831D330A4012D2491
:1013B0008831D3306B2288310330F32188314622C3
:1013C00088312100DC005C08031DF1295E22883190
:1013D0002100E9006908F1000130B22388310130B1
:1013E000F3290230F329F2002100D000013A031959
:1013F000032A033A03190F2A013A03190D2A073A5F
:101400000319092A142A152288310130B92288319A
:10141000072F283025008D00332F0A300A2A152285
:1014200088318A2288312B2F0800362F2030CF01B7
:10143000860001308700D3308400003085000D30F5
:101440002000ED0016001A00ED0B222A3E30A1000C
:101450009230AE278831D330A4012D248831D33087
:101460006B228831462288312100E0006008031D8C
:101470003B2A01303E2A600B402A0230F32188319A
:1014800002302100600603192F2A072FCC30F60006
:101490009230F7008B2288315E228831F900593A68
:1014A000031D552A0130F32100344E30790603190B
:1014B00001344530790603190234462AB6228831B0
:1014C000003A031D652A00005E2AB4278A00003F07
:1014D0000A008A3108002000EC000430F321883132
:1014E00067302000E8009230E900FE30EA009230D8
:1014F000EB0076238831DD228831B630F600923059
:10150000F7008B228831640020006C08F500003061
:10151000F6017E2E392F7708F2007608F10060235D
:10152000883172082000A1007108A0002000A201EB
:10153000A30121082302031D9F2A20082202031869
:1015400008007608220784007708233D85000008FC
:10155000F8005E2288317806031D962A2000A20A30
:101560000319A30A992A332F1815080021005108DE
:101570000800F10071082100CE00691CC52A710C19
:101580002000031C1612031816162100E91CCE2A8F
:10159000710C2000031C9612031896162100691D79
:1015A000D72A710C2000031C1613031816172100EC
:1015B000E91D0800710CFA2F072FB6228831003A76
:1015C00003190800B4278A00003F0A008A31DD2A87
:1015D0007708F2007608F100602388317208200055
:1015E000A3007108A200A901AA017808F100F20184
:1015F0006023883172082000A5007108A400AB01A7
:10160000AC017908F100F2016023883172082000F2
:10161000A1007108A000A601A701372B5E22883126
:101620002000A80076082907840077082A3D850055
:1016300000082806031D202BA90A0319AA0A222B39
:10164000A901AA012B087807C0278831031D2C2B7C
:10165000AB0A0319AC0A2E2BAB01AC0126087907A3
:10166000C0278831031D0B2BA60A0319A70A2308DC
:101670002A02031D3D2B2208290203184F2B25089F
:101680002C02031D452B24082B0203184F2B210885
:101690002702031D4D2B20082602031C0E2B2308B6
:1016A0002A06031D552B2208290603190134250893
:1016B0002C06031D5D2B24082B060319023403346A
:1016C0007208F5007108F40074088400750885003C
:1016D000120003196F2BF40A0319F50A642B710821
:1016E0007402F1007208753BF20008005A30BA002B
:1016F0009230BB006908BD006808BC006B08BF00E1
:101700006A08BE0094238831F430F6009230F70066
:10171000B330F800BA30F900E8228831013A031DED
:10172000762B2100EA010800AD238831DD228831C3
:1017300020003B08A2003A08A1003D08A4003C0894
:10174000A3003F08A6003E08A50040302D248831A4
:101750004030F2000030F300912E21006A08031D92
:1017600008004628F20030009E18B32B1E1772089E
:101770009A0070309B009D0171089C0003108B1B28
:1017800003148B131E1555309F00AA309F009E1422
:101790009E18C82B1E1103188B1708007208210011
:1017A000E2007108E100080072082100E8007108F9
:1017B000E7000800EE238831E52388310A278831C5
:1017C000F32688313C2780313628603031008D0087
:1017D0008F019101063093009201080020009A01C8
:1017E0009901960197019801073095000F309100FB
:1017F000FF309200F9309300F3309400DA303E006D
:10180000CE00EF30C300F330D9000730E400FF30E2
:10181000B800DA01E5011030C400B9012030CF0072
:10182000E601BA01C501D001DB0100308B1B01309C
:10183000F1008B13BA2788310F104B08E0391038AC
:10184000CB0010303E00A100BA2788310F14711C64
:101850002B2C8B1708008B130800B6002330AE002A
:1018600020005E27883139080319462E25303906B5
:101870000319412C36088600870139088100B60A11
:10188000302CB701B801B401B5014C2CB415492C6A
:101890003415A10A0319A20A8F2788312D3A03199A
:1018A000462C1D3A0319482C552CB41D582C3411C4
:1018B0008F2788314B268831031C822CB701B80151
:1018C0000A30F100F2013808F4003708F300DE2690
:1018D00088317208B8007108B7008F278831D03E70
:1018E000A700FF3003180030A8002708B707280812
:1018F000B83DA10A0319A20A8F2788314B268831E7
:101900000318602C210884002208850012002E3A5A
:10191000031DA42C3517A10A0319A20AB3018F27AE
:1019200088314B268831031C272D8F278831A7004B
:101930000A30F1003308B22688312707D03EB300C1
:10194000A10A0319A20A8F2CB301272DB4173C2D2D
:101950002E0886008701403FAC00413FAD00AE0A33
:10196000AE0A2C04031DB82CC530AC009230AD007B
:10197000AF01B0012C082F0784002D08303D8500F1
:1019800012000319C72CAF0A0319B00ABA2C330886
:101990000319DC2C3308A700A801A71BA8033008F3
:1019A0002802031DD52C2F0827020318DC2C33082E
:1019B000AF00B001AF1BB00338083002031DE22CAA
:1019C00037082F020318E92C2F08B7023008B83B5C
:1019D000EB2CB701B801B41DF02C072D9F278831DF
:1019E000FF30B707031CB803370FEE2C380A031972
:1019F000072DEE2C3608860087012C0884002D0860
:101A0000850000088100AC0A0319AD0AB60A01304E
:101A1000AF020030B03B2F0FFA2C300A031DFA2C16
:101A2000B419152D302C9F278831FF30B707031CC0
:101A3000B803370F132D380A0319302C132D393002
:101A4000AC000030AD00AF01AF0AB001C72C5E277B
:101A50008831003A0319462E643A03193C2D0D3A99
:101A600003193C2D193A0319A62C033A0319A82C83
:101A70000B3A0319A62C1F2DB41B4A2D952788312C
:101A8000B21F4C2D0330B404B109B209B10A0319D5
:101A9000B20A4C2D952788313308031D7D2D31085E
:101AA0003204031D7D2DB30A7D2DB9010530B90A1D
:101AB00039060319852D390877278831A900013F98
:101AC000AA003202031D662D29083102031C852D50
:101AD000562DB9010430B90A39060319852D390884
:101AE00083278831A900013FAA003202031D7A2D05
:101AF00029083102031C852D6A2D34088039031909
:101B0000552D803A0319692D852D3908803AA70093
:101B10003308803AA70233080318902DB900992D95
:101B2000803AA7003908803AA7020318992D39088E
:101B3000B300370838040319A52D340803390319F5
:101B4000A52DFF30B707031CB803351FB42D33088C
:101B50004F2788310318B12D20003308A62788317C
:101B6000B42D2000B701B80139084F278831031878
:101B7000BE2D20003908A6278831C12D2000B701CD
:101B8000B801341DDC2D340803390319CD2D360876
:101B900086002D3087018100B60A37083804031902
:101BA0002F2E36088600303087018100FF30B60ABC
:101BB000B707031CB803CD2D37083804031DB4192B
:101BC000E62D36086B278831031DE12D34080339D3
:101BD00003192F2E360886002D3087012D2E0A304E
:101BE000F800F901330877278831F100013FF2004E
:101BF0003208F4003108F300592688317208FB00DE
:101C00007108FA00BE2688317808303E1F2E32084F
:101C1000F4003108F300330883278831F100013FD5
:101C2000F200592688317108AB000F30AB052B0844
:101C3000FF3E840091300318013E85000008B90082
:101C4000292E340880390319EF2D803A0319072E05
:101C5000292E36088600870139088100B60AB303A9
:101C6000330F212EB41D302C3808803AA700803065
:101C70002702031D3D2E01303702031C302C2000AB
:101C800036086B2788310319302C3F2E3608860022
:101C9000870181010800F2003A30F1017202031855
:101CA000572E30307202031C572EF101F10A710CCD
:101CB0000800F501F601710872040319792EF70185
:101CC000F70AF21B662EF135F20D602EF535F60D92
:101CD00072087402031D6E2E71087302031C752EA8
:101CE0007108F3027208F43B7514F236F10CF70B2D
:101CF000662E7608F2007508F1000800DD228831B2
:101D00007608F3007508F200912EAD23883120008B
:101D10002508F6002408F5007E268831CB27883177
:101D2000DB2872088400730885001200031908007C
:101D300072088400730885000008F100D830840020
:101D400091308500013F8A00003F0A008E31F20A7F
:101D50000319F30A912EDA30F5009230F6007E2650
:101D600088319628F300F20171087318F207F135F3
:101D7000F3367308031DB42E72080800780879043E
:101D80000319D92EA001A00AF91BC92EF835F90DA7
:101D9000C32E79087B02031DCF2E78087A02031C1C
:101DA000D52E7808FA027908FB3BF936F80CA00B1F
:101DB000C92E7B08F9007A08F8000800F501F60141
:101DC000711CE62E7308F5077408F63DF335F40D23
:101DD000F236F10C71087204031DE02E7608F20051
:101DE0007508F10008007F3025009400043096004B
:101DF00095019701E230930092012E0090119A15FF
:101E00002230F1000130F200D4238831072F250061
:101E100094170800243030008C0007308D00080033
:101E20006B08E7006A08E6006D08E9006C08E80046
:101E3000AA28F1001C2F2500640030009E181B2FDB
:101E40001E1771089A0070309B001E141C080800B1
:101E50002000181108002100CE0120001612961251
:101E600016139613080025008E17080025008E1300
:101E700008002500941308003F308E0004309000C5
:101E80008F01910101308D008C012E0090109A1469
:101E90002330F1000130F200CE238831332FA70028
:101EA000A801A71BA8032808803AA9003808803A8F
:101EB0002902031D08003708270208002208A8008D
:101EC0002108A700A10A0319A20A84002808850096
:101ED0000008B90008008600203087018100FF302B
:101EE000B60AB707031CB803370838040800A70070
:101EF0007E30A801A735A80D270784009230283D21
:101F00008500003F0800A700AE30A801A735A80D46
:101F1000270784009230283D8500003F08002108F3
:101F2000840022088500000808002E08860087012A
:101F3000403FB100413FB200AE0AAE0A0800360889
:101F40008600203087018100B60A0800A700A8019A
:101F5000A71BA803B7022808B83B0800A20021006D
:101F600069082000A3000800CA3084009130850071
:101F7000013F080055303D008F00AA308F00080057
:101F8000FA0086008701010828060800E830F600FC
:101F90009230F70008000830F6009330F700080090
:101FA0004E08031DD52F0130D62F0030D82708004A
:101FB000F0007008CE00691CE32F700C2000031C99
:101FC0001612031816162100E91CEC2F700C2000C5
:101FD000031C9612031896162100691DF52F700C2C
:101FE0002000031C1613031816172100E91D080012
:101FF000700CFA2F2000031C961303189617080084
:102000000A34203420342034203420342034203446
:1020100020342034203420347C3420347C340A347E
:102020002034203420342034203420342034203410
:102030002034203420347C3420347C340A3420345E
:10204000203420342D342D342D342D342D342D34A2
:102050002D342D342D342D342D342D342D342D3478
:102060002D342D342D342D342D340A3420342034A5
:1020700020342D342D342D342D342D342D342D3465
:102080002D342D342D342D342D342D342D342D3448
:102090002D342D342D342D340A3420342034203482
:1020A00020347C34203420345F345F345F34203477
:1020B00020347C34203420345F345F345F34203467
:1020C00020347C340A3420342034203420347C34CE
:1020D00020347C3420347C3420347C3420347C34F0
:1020E00020347C3420347C3420347C3420347C34E0
:1020F0000A3420342034203420347C3420347C349E
:102100002D342B342D347C3420347C3420347C34F6
:102110002D342B342D347C3420347C340A34203458
:102120002034203420347C3420347C345F347C34BC
:102130005F347C3420347C3420347C345F347C3411
:102140005F347C3420347C340A342034203420340E
:1021500020347C34203420345F345F345F342034C6
:1021600020347C34203420345F345F345F342034B6
:1021700020347C340A3420342034203420347C341D
:1021800020347C342034203420347C3420347C349B
:1021900020347C342034203420347C3420347C348B
:1021A0000A3420342034203420347C3420347C34ED
:1021B0002034203420347C3420347C3420347C346B
:1021C0002034203420347C3420347C340A342034CD
:1021D0002034203420347C3420347C345F345F3429
:1021E0005F347C3420347C3420347C345F345F347E
:1021F0005F347C3420347C340A342034203420345E
:1022000020347C34203420345F345F345F34203415
:1022100020347C34203420345F345F345F34203405
:1022200020347C340A3420342034203420347C346C
:1022300020347C342034203420347C3420347C34EA
:1022400020347C342034203420347C3420347C34DA
:102250000A3420342034203420347C3420347C343C
:102260002034203420347C3420347C3420347C34BA
:102270002034203420347C3420347C340A3420341C
:102280002034203420347C3420347C345F345F3478
:102290005F347C3420347C3420347C345F345F34CD
:1022A0005F347C3420347C340A34203420342034AD
:1022B00020347C3420342034203420342034203422
:1022C00020347C3420342034203420342034203412
:1022D00020347C340A342034203420343D343D34DE
:1022E0003D343D343D343D343D343D343D343D3466
:1022F0003D343D343D343D343D343D343D343D3456
:102300003D340A3400347334653474342034773403
:102310006C3461346E34203470346134733473340B
:102320007034683472346134733465342034253445
:1023300073340D340A340034733465347434203407
:10234000693470342034703472346F3474346F34C0
:1023500063346F346C342034303438340D340A3400
:102360000034733465347434203475346134723419
:10237000743420346D346F34643465342034303434
:102380007834313431340D340A340034B6340A34FC
:1023900036340034BA340034D13400346334003479
:1023A0005D3400340034003400340034A23400348E
:1023B00086340034733465347434203477346C34A8
:1023C00061346E34203473347334693464342034AB
:1023D000253473340D340A34003473346534743462
:1023E000203477346C3461346E3420346A346F3482
:1023F00069346E34203431340D340A3400343034CE
:102400003134323433343434353436343734383488
:10241000393461346234633464346534663400348E
:102420007334653474342034693470342034643443
:10243000683463347034203431340D340A34003459
:1024400066346134633474346F34723479342034D4
:10245000523445345334453454340D340A34003442
:10246000433434342D3432342D343534343433342D
:102470005F3457344C3441344E3400347634613454
:102480006C346934643461347434653420342534F4
:1024900030343334643400344B346E346F3463344A
:1024A0006B3420344B346E346F3463346B340D34FE
:1024B0000A3400346F34703465346E34203425347B
:1024C00073342034253473340D340A3400343134F9
:1024D000393432342E343134363438342E343134C5
:1024E0002E34373400346B346E346F3463346B34D1
:1024F000203425343034333464340034013400342F
:102500000A34003464340034E8340334103427349B
:102510004834403463346B3465347234313430348D
:1025200031340034703461346934723420342534E9
:10253000303433346434003444346F3463347434AA
:102540006F3472340D340A340034723465346234BA
:102550006F346F3474340D340A3400340134003471
:1025600010340034003401340034103450347234E8
:102570006F34633465346534643400345234653404
:1025800062346F346F347434003428346E347534EC
:102590006C346C34293400345334743461347434FE
:1025A0003A34203400347434683465347234653419
:1025B0003F34003473346134763465340D340A3476
:1025C000003465347834693474340D340A3400349A
:1025D0005234453441344434593400344934463457
:1025E0003D345534503400344F34503445344E3437
:1025F000003445345834493454340034313433349D
:10260000333435340034773468346F343F34003435
:1026100041344F344B34003443344D34443400346B
:08262000243424342434003476
:020000040001F9
:0A000E00EC3FFF3FB207FF3FFF3F4A
:00000001FF
